{
  "contractName": "TodoList",
  "abi": [
    {
      "anonymous": false,
      "inputs": [
        {
          "indexed": true,
          "internalType": "address",
          "name": "user",
          "type": "address"
        },
        {
          "indexed": true,
          "internalType": "uint256",
          "name": "todoId",
          "type": "uint256"
        },
        {
          "indexed": false,
          "internalType": "string",
          "name": "title",
          "type": "string"
        },
        {
          "indexed": false,
          "internalType": "string",
          "name": "description",
          "type": "string"
        },
        {
          "indexed": false,
          "internalType": "uint256",
          "name": "startDate",
          "type": "uint256"
        },
        {
          "indexed": false,
          "internalType": "uint256",
          "name": "endDate",
          "type": "uint256"
        },
        {
          "indexed": false,
          "internalType": "enum TodoList.Status",
          "name": "status",
          "type": "uint8"
        }
      ],
      "name": "TodoCreated",
      "type": "event"
    },
    {
      "anonymous": false,
      "inputs": [
        {
          "indexed": true,
          "internalType": "address",
          "name": "user",
          "type": "address"
        },
        {
          "indexed": true,
          "internalType": "uint256",
          "name": "todoId",
          "type": "uint256"
        }
      ],
      "name": "TodoDeleted",
      "type": "event"
    },
    {
      "anonymous": false,
      "inputs": [
        {
          "indexed": true,
          "internalType": "address",
          "name": "user",
          "type": "address"
        },
        {
          "indexed": true,
          "internalType": "uint256",
          "name": "todoId",
          "type": "uint256"
        },
        {
          "indexed": false,
          "internalType": "string",
          "name": "title",
          "type": "string"
        },
        {
          "indexed": false,
          "internalType": "string",
          "name": "description",
          "type": "string"
        },
        {
          "indexed": false,
          "internalType": "uint256",
          "name": "startDate",
          "type": "uint256"
        },
        {
          "indexed": false,
          "internalType": "uint256",
          "name": "endDate",
          "type": "uint256"
        },
        {
          "indexed": false,
          "internalType": "enum TodoList.Status",
          "name": "status",
          "type": "uint8"
        }
      ],
      "name": "TodoUpdated",
      "type": "event"
    },
    {
      "inputs": [
        {
          "internalType": "address",
          "name": "",
          "type": "address"
        }
      ],
      "name": "TodoId",
      "outputs": [
        {
          "internalType": "uint256",
          "name": "",
          "type": "uint256"
        }
      ],
      "stateMutability": "view",
      "type": "function"
    },
    {
      "inputs": [
        {
          "internalType": "address",
          "name": "",
          "type": "address"
        },
        {
          "internalType": "uint256",
          "name": "",
          "type": "uint256"
        }
      ],
      "name": "getId",
      "outputs": [
        {
          "internalType": "uint256",
          "name": "",
          "type": "uint256"
        }
      ],
      "stateMutability": "view",
      "type": "function"
    },
    {
      "inputs": [
        {
          "internalType": "address",
          "name": "",
          "type": "address"
        },
        {
          "internalType": "uint256",
          "name": "",
          "type": "uint256"
        }
      ],
      "name": "todos",
      "outputs": [
        {
          "internalType": "string",
          "name": "title",
          "type": "string"
        },
        {
          "internalType": "string",
          "name": "description",
          "type": "string"
        },
        {
          "internalType": "uint256",
          "name": "startDate",
          "type": "uint256"
        },
        {
          "internalType": "uint256",
          "name": "endDate",
          "type": "uint256"
        },
        {
          "internalType": "enum TodoList.Status",
          "name": "status",
          "type": "uint8"
        }
      ],
      "stateMutability": "view",
      "type": "function"
    },
    {
      "inputs": [
        {
          "internalType": "string",
          "name": "title",
          "type": "string"
        },
        {
          "internalType": "string",
          "name": "description",
          "type": "string"
        },
        {
          "internalType": "uint256",
          "name": "startDate",
          "type": "uint256"
        },
        {
          "internalType": "uint256",
          "name": "endDate",
          "type": "uint256"
        },
        {
          "internalType": "enum TodoList.Status",
          "name": "status",
          "type": "uint8"
        }
      ],
      "name": "createTodo",
      "outputs": [
        {
          "internalType": "string",
          "name": "",
          "type": "string"
        },
        {
          "internalType": "string",
          "name": "",
          "type": "string"
        },
        {
          "internalType": "uint256",
          "name": "",
          "type": "uint256"
        },
        {
          "internalType": "uint256",
          "name": "",
          "type": "uint256"
        },
        {
          "internalType": "enum TodoList.Status",
          "name": "",
          "type": "uint8"
        }
      ],
      "stateMutability": "nonpayable",
      "type": "function"
    },
    {
      "inputs": [
        {
          "internalType": "uint256",
          "name": "todoId",
          "type": "uint256"
        }
      ],
      "name": "deleteTodo",
      "outputs": [],
      "stateMutability": "nonpayable",
      "type": "function"
    },
    {
      "inputs": [
        {
          "internalType": "address",
          "name": "user",
          "type": "address"
        }
      ],
      "name": "getTodo",
      "outputs": [
        {
          "components": [
            {
              "internalType": "string",
              "name": "title",
              "type": "string"
            },
            {
              "internalType": "string",
              "name": "description",
              "type": "string"
            },
            {
              "internalType": "uint256",
              "name": "startDate",
              "type": "uint256"
            },
            {
              "internalType": "uint256",
              "name": "endDate",
              "type": "uint256"
            },
            {
              "internalType": "enum TodoList.Status",
              "name": "status",
              "type": "uint8"
            }
          ],
          "internalType": "struct TodoList.Todo[]",
          "name": "",
          "type": "tuple[]"
        }
      ],
      "stateMutability": "view",
      "type": "function"
    },
    {
      "inputs": [
        {
          "internalType": "uint256",
          "name": "tokenId",
          "type": "uint256"
        },
        {
          "internalType": "string",
          "name": "title",
          "type": "string"
        },
        {
          "internalType": "string",
          "name": "description",
          "type": "string"
        },
        {
          "internalType": "uint256",
          "name": "startDate",
          "type": "uint256"
        },
        {
          "internalType": "uint256",
          "name": "endDate",
          "type": "uint256"
        },
        {
          "internalType": "enum TodoList.Status",
          "name": "status",
          "type": "uint8"
        }
      ],
      "name": "updateTodo",
      "outputs": [],
      "stateMutability": "nonpayable",
      "type": "function"
    }
  ],
  "bytecode": "0x608060405234801561001057600080fd5b50611a6d806100206000396000f3fe608060405234801561001057600080fd5b506004361061007d5760003560e01c8063b74c7a091161005b578063b74c7a0914610102578063c5d3e11d14610136578063cb5ba8f014610166578063f2273c21146101825761007d565b8063428c1889146100825780636e3c6738146100b6578063af3116d8146100d2575b600080fd5b61009c60048036038101906100979190610e03565b6101b2565b6040516100ad959493929190610f59565b60405180910390f35b6100d060048036038101906100cb9190610fba565b610312565b005b6100ec60048036038101906100e79190610fe7565b6104c5565b6040516100f991906111bb565b60405180910390f35b61011c60048036038101906101179190611337565b6107a1565b60405161012d959493929190610f59565b60405180910390f35b610150600480360381019061014b9190610e03565b6109e4565b60405161015d91906113ea565b60405180910390f35b610180600480360381019061017b9190611405565b610a15565b005b61019c60048036038101906101979190610fe7565b610c5c565b6040516101a991906113ea565b60405180910390f35b6000602052816000526040600020602052806000526040600020600091509150508060000180546101e2906114f9565b80601f016020809104026020016040519081016040528092919081815260200182805461020e906114f9565b801561025b5780601f106102305761010080835404028352916020019161025b565b820191906000526020600020905b81548152906001019060200180831161023e57829003601f168201915b505050505090806001018054610270906114f9565b80601f016020809104026020016040519081016040528092919081815260200182805461029c906114f9565b80156102e95780601f106102be576101008083540402835291602001916102e9565b820191906000526020600020905b8154815290600101906020018083116102cc57829003601f168201915b5050505050908060020154908060030154908060040160009054906101000a900460ff16905085565b600160003373ffffffffffffffffffffffffffffffffffffffff1673ffffffffffffffffffffffffffffffffffffffff168152602001908152602001600020548114610393576040517f08c379a000000000000000000000000000000000000000000000000000000000815260040161038a90611576565b60405180910390fd5b6000803373ffffffffffffffffffffffffffffffffffffffff1673ffffffffffffffffffffffffffffffffffffffff1681526020019081526020016000206000828152602001908152602001600020600080820160006103f39190610cbd565b6001820160006104039190610cbd565b600282016000905560038201600090556004820160006101000a81549060ff02191690555050600160003373ffffffffffffffffffffffffffffffffffffffff1673ffffffffffffffffffffffffffffffffffffffff1681526020019081526020016000206000815480929190610479906115c5565b9190505550803373ffffffffffffffffffffffffffffffffffffffff167f24d84cd6bd5cc33dafa556a214e7d9e1b4fccca98b3e7d1413909e4710f02ff360405160405180910390a350565b60606000600260008473ffffffffffffffffffffffffffffffffffffffff1673ffffffffffffffffffffffffffffffffffffffff16815260200190815260200160002090506000818054905067ffffffffffffffff81111561052a576105296111e7565b5b60405190808252806020026020018201604052801561056357816020015b610550610cfd565b8152602001906001900390816105485790505b50905060005b828054905081101561079657600083828154811061058a576105896115ee565b5b906000526020600020015490506000808773ffffffffffffffffffffffffffffffffffffffff1673ffffffffffffffffffffffffffffffffffffffff16815260200190815260200160002060008281526020019081526020016000206040518060a0016040529081600082018054610601906114f9565b80601f016020809104026020016040519081016040528092919081815260200182805461062d906114f9565b801561067a5780601f1061064f5761010080835404028352916020019161067a565b820191906000526020600020905b81548152906001019060200180831161065d57829003601f168201915b50505050508152602001600182018054610693906114f9565b80601f01602080910402602001604051908101604052809291908181526020018280546106bf906114f9565b801561070c5780601f106106e15761010080835404028352916020019161070c565b820191906000526020600020905b8154815290600101906020018083116106ef57829003601f168201915b5050505050815260200160028201548152602001600382015481526020016004820160009054906101000a900460ff16600281111561074e5761074d610ee2565b5b60028111156107605761075f610ee2565b5b81525050838381518110610777576107766115ee565b5b602002602001018190525050808061078e9061161d565b915050610569565b508092505050919050565b6060806000806000806107b8338c8c8c8c8c610c74565b90506040518060a001604052808c81526020018b81526020018a81526020018981526020018860028111156107f0576107ef610ee2565b5b8152506000803373ffffffffffffffffffffffffffffffffffffffff1673ffffffffffffffffffffffffffffffffffffffff168152602001908152602001600020600083815260200190815260200160002060008201518160000190816108579190611811565b50602082015181600101908161086d9190611811565b50604082015181600201556060820151816003015560808201518160040160006101000a81548160ff021916908360028111156108ad576108ac610ee2565b5b0217905550905050600160003373ffffffffffffffffffffffffffffffffffffffff1673ffffffffffffffffffffffffffffffffffffffff16815260200190815260200160002060008154809291906109059061161d565b9190505550803373ffffffffffffffffffffffffffffffffffffffff167ffbab56ff7d8179d8b15cae11ed4dbcad2c8f87d13ea6690772dc5742e47d0d168d8d8d8d8d604051610959959493929190610f59565b60405180910390a3600260003373ffffffffffffffffffffffffffffffffffffffff1673ffffffffffffffffffffffffffffffffffffffff1681526020019081526020016000208190806001815401808255809150506001900390600052602060002001600090919091909150558a8a8a8a8a95509550955095509550509550955095509550959050565b60026020528160005260406000208181548110610a0057600080fd5b90600052602060002001600091509150505481565b846000803373ffffffffffffffffffffffffffffffffffffffff1673ffffffffffffffffffffffffffffffffffffffff16815260200190815260200160002060008881526020019081526020016000206000019081610a749190611811565b50836000803373ffffffffffffffffffffffffffffffffffffffff1673ffffffffffffffffffffffffffffffffffffffff16815260200190815260200160002060008881526020019081526020016000206001019081610ad49190611811565b50826000803373ffffffffffffffffffffffffffffffffffffffff1673ffffffffffffffffffffffffffffffffffffffff168152602001908152602001600020600088815260200190815260200160002060020181905550816000803373ffffffffffffffffffffffffffffffffffffffff1673ffffffffffffffffffffffffffffffffffffffff168152602001908152602001600020600088815260200190815260200160002060030181905550806000803373ffffffffffffffffffffffffffffffffffffffff1673ffffffffffffffffffffffffffffffffffffffff168152602001908152602001600020600088815260200190815260200160002060040160006101000a81548160ff02191690836002811115610bf857610bf7610ee2565b5b0217905550853373ffffffffffffffffffffffffffffffffffffffff167fed9f180174725c8888bb904b6645cecc9b0c5b2eadbd8e0675c57e3aeac3d2798787878787604051610c4c959493929190610f59565b60405180910390a3505050505050565b60016020528060005260406000206000915090505481565b60008087878787878742604051602001610c9497969594939291906119be565b6040516020818303038152906040528051906020012090508060001c9150509695505050505050565b508054610cc9906114f9565b6000825580601f10610cdb5750610cfa565b601f016020900490600052602060002090810190610cf99190610d3e565b5b50565b6040518060a001604052806060815260200160608152602001600081526020016000815260200160006002811115610d3857610d37610ee2565b5b81525090565b5b80821115610d57576000816000905550600101610d3f565b5090565b6000604051905090565b600080fd5b600080fd5b600073ffffffffffffffffffffffffffffffffffffffff82169050919050565b6000610d9a82610d6f565b9050919050565b610daa81610d8f565b8114610db557600080fd5b50565b600081359050610dc781610da1565b92915050565b6000819050919050565b610de081610dcd565b8114610deb57600080fd5b50565b600081359050610dfd81610dd7565b92915050565b60008060408385031215610e1a57610e19610d65565b5b6000610e2885828601610db8565b9250506020610e3985828601610dee565b9150509250929050565b600081519050919050565b600082825260208201905092915050565b60005b83811015610e7d578082015181840152602081019050610e62565b60008484015250505050565b6000601f19601f8301169050919050565b6000610ea582610e43565b610eaf8185610e4e565b9350610ebf818560208601610e5f565b610ec881610e89565b840191505092915050565b610edc81610dcd565b82525050565b7f4e487b7100000000000000000000000000000000000000000000000000000000600052602160045260246000fd5b60038110610f2257610f21610ee2565b5b50565b6000819050610f3382610f11565b919050565b6000610f4382610f25565b9050919050565b610f5381610f38565b82525050565b600060a0820190508181036000830152610f738188610e9a565b90508181036020830152610f878187610e9a565b9050610f966040830186610ed3565b610fa36060830185610ed3565b610fb06080830184610f4a565b9695505050505050565b600060208284031215610fd057610fcf610d65565b5b6000610fde84828501610dee565b91505092915050565b600060208284031215610ffd57610ffc610d65565b5b600061100b84828501610db8565b91505092915050565b600081519050919050565b600082825260208201905092915050565b6000819050602082019050919050565b600082825260208201905092915050565b600061105c82610e43565b6110668185611040565b9350611076818560208601610e5f565b61107f81610e89565b840191505092915050565b61109381610dcd565b82525050565b6110a281610f38565b82525050565b600060a08301600083015184820360008601526110c58282611051565b915050602083015184820360208601526110df8282611051565b91505060408301516110f4604086018261108a565b506060830151611107606086018261108a565b50608083015161111a6080860182611099565b508091505092915050565b600061113183836110a8565b905092915050565b6000602082019050919050565b600061115182611014565b61115b818561101f565b93508360208202850161116d85611030565b8060005b858110156111a9578484038952815161118a8582611125565b945061119583611139565b925060208a01995050600181019050611171565b50829750879550505050505092915050565b600060208201905081810360008301526111d58184611146565b905092915050565b600080fd5b600080fd5b7f4e487b7100000000000000000000000000000000000000000000000000000000600052604160045260246000fd5b61121f82610e89565b810181811067ffffffffffffffff8211171561123e5761123d6111e7565b5b80604052505050565b6000611251610d5b565b905061125d8282611216565b919050565b600067ffffffffffffffff82111561127d5761127c6111e7565b5b61128682610e89565b9050602081019050919050565b82818337600083830152505050565b60006112b56112b084611262565b611247565b9050828152602081018484840111156112d1576112d06111e2565b5b6112dc848285611293565b509392505050565b600082601f8301126112f9576112f86111dd565b5b81356113098482602086016112a2565b91505092915050565b6003811061131f57600080fd5b50565b60008135905061133181611312565b92915050565b600080600080600060a0868803121561135357611352610d65565b5b600086013567ffffffffffffffff81111561137157611370610d6a565b5b61137d888289016112e4565b955050602086013567ffffffffffffffff81111561139e5761139d610d6a565b5b6113aa888289016112e4565b94505060406113bb88828901610dee565b93505060606113cc88828901610dee565b92505060806113dd88828901611322565b9150509295509295909350565b60006020820190506113ff6000830184610ed3565b92915050565b60008060008060008060c0878903121561142257611421610d65565b5b600061143089828a01610dee565b965050602087013567ffffffffffffffff81111561145157611450610d6a565b5b61145d89828a016112e4565b955050604087013567ffffffffffffffff81111561147e5761147d610d6a565b5b61148a89828a016112e4565b945050606061149b89828a01610dee565b93505060806114ac89828a01610dee565b92505060a06114bd89828a01611322565b9150509295509295509295565b7f4e487b7100000000000000000000000000000000000000000000000000000000600052602260045260246000fd5b6000600282049050600182168061151157607f821691505b602082108103611524576115236114ca565b5b50919050565b7f546f646f20646f6573206e6f7420657869737400000000000000000000000000600082015250565b6000611560601383610e4e565b915061156b8261152a565b602082019050919050565b6000602082019050818103600083015261158f81611553565b9050919050565b7f4e487b7100000000000000000000000000000000000000000000000000000000600052601160045260246000fd5b60006115d082610dcd565b9150600082036115e3576115e2611596565b5b600182039050919050565b7f4e487b7100000000000000000000000000000000000000000000000000000000600052603260045260246000fd5b600061162882610dcd565b91507fffffffffffffffffffffffffffffffffffffffffffffffffffffffffffffffff820361165a57611659611596565b5b600182019050919050565b60008190508160005260206000209050919050565b60006020601f8301049050919050565b600082821b905092915050565b6000600883026116c77fffffffffffffffffffffffffffffffffffffffffffffffffffffffffffffffff8261168a565b6116d1868361168a565b95508019841693508086168417925050509392505050565b6000819050919050565b600061170e61170961170484610dcd565b6116e9565b610dcd565b9050919050565b6000819050919050565b611728836116f3565b61173c61173482611715565b848454611697565b825550505050565b600090565b611751611744565b61175c81848461171f565b505050565b5b8181101561178057611775600082611749565b600181019050611762565b5050565b601f8211156117c55761179681611665565b61179f8461167a565b810160208510156117ae578190505b6117c26117ba8561167a565b830182611761565b50505b505050565b600082821c905092915050565b60006117e8600019846008026117ca565b1980831691505092915050565b600061180183836117d7565b9150826002028217905092915050565b61181a82610e43565b67ffffffffffffffff811115611833576118326111e7565b5b61183d82546114f9565b611848828285611784565b600060209050601f83116001811461187b5760008415611869578287015190505b61187385826117f5565b8655506118db565b601f19841661188986611665565b60005b828110156118b15784890151825560018201915060208501945060208101905061188c565b868310156118ce57848901516118ca601f8916826117d7565b8355505b6001600288020188555050505b505050505050565b60008160601b9050919050565b60006118fb826118e3565b9050919050565b600061190d826118f0565b9050919050565b61192561192082610d8f565b611902565b82525050565b600081905092915050565b600061194182610e43565b61194b818561192b565b935061195b818560208601610e5f565b80840191505092915050565b6000819050919050565b61198261197d82610dcd565b611967565b82525050565b60008160f81b9050919050565b60006119a082611988565b9050919050565b6119b86119b382610f38565b611995565b82525050565b60006119ca828a611914565b6014820191506119da8289611936565b91506119e68288611936565b91506119f28287611971565b602082019150611a028286611971565b602082019150611a1282856119a7565b600182019150611a228284611971565b6020820191508190509897505050505050505056fea26469706673582212208155da4fda127d08e78642ed9230d18ec36f098cf9c8809030e428b75ebf589964736f6c63430008120033",
  "immutableReferences": {},
  "source": "// SPDX-License-Identifier: MIT\r\npragma solidity ^0.8.0;\r\n\r\ncontract TodoList{\r\n\r\n    enum Status{\r\n        todo,\r\n        doing,\r\n        done\r\n    }\r\n\r\n    struct Todo{\r\n        string title;\r\n        string description;\r\n        uint startDate;\r\n        uint endDate;\r\n        Status status;\r\n    }\r\n\r\n   \r\n    mapping(address => mapping(uint256 => Todo)) public todos;\r\n    mapping(address => uint256) public TodoId;\r\n    mapping(address => uint256[]) public getId;\r\n\r\n    \r\n    event TodoCreated(address indexed user, uint256 indexed todoId, string title, string description, uint256 startDate, uint256 endDate, Status status);\r\n    event TodoDeleted(address indexed user,uint256 indexed  todoId);\r\n    event TodoUpdated(address indexed user, uint256 indexed todoId, string title, string description, uint256 startDate,uint256 endDate, Status status);\r\n    \r\n    function generateTodoId(address user, string memory title, string memory description, uint256 startDate, uint256 endDate, Status status) internal view returns (uint256) {\r\n        bytes32 hash = keccak256(abi.encodePacked(user, title, description, startDate, endDate, status, block.timestamp));\r\n        return uint256(hash);\r\n    }\r\n\r\n   \r\n    function createTodo(string memory title, string memory description, uint256 startDate, uint256 endDate, Status status) external returns(string memory,string memory,uint256,uint256,Status){\r\n   \r\n        uint256 newTodoId = generateTodoId(msg.sender, title, description, startDate, endDate, status);\r\n\r\n        todos[msg.sender][newTodoId] = Todo({\r\n            title: title,\r\n            description: description,\r\n            startDate: startDate,\r\n            endDate: endDate,\r\n            status: status\r\n        });\r\n\r\n        TodoId[msg.sender]++;\r\n\r\n        emit TodoCreated(msg.sender, newTodoId, title, description, startDate, endDate, status);\r\n        getId[msg.sender].push(newTodoId);\r\n        return(title,description,startDate,endDate,status);\r\n    }\r\n    \r\n    function deleteTodo(uint256 todoId) external {\r\n        require(todoId == TodoId[msg.sender], \"Todo does not exist\");\r\n\r\n        delete todos[msg.sender][todoId];\r\n        TodoId[msg.sender]--;\r\n\r\n        emit TodoDeleted(msg.sender, todoId);\r\n    }\r\n    \r\n\r\n    function getTodo(address user) external view returns (Todo[] memory) {\r\n        uint256[] storage tokenIDs = getId[user];\r\n        Todo[] memory userTodos = new Todo[](tokenIDs.length);\r\n\r\n        for (uint256 i = 0; i < tokenIDs.length; i++) {\r\n            uint256 tokenID = tokenIDs[i];\r\n            // userTodos[i] = todos[msg.sender][tokenID];\r\n            userTodos[i] = todos[user][tokenID];\r\n        }\r\n\r\n        return userTodos;\r\n    }\r\n\r\n    function updateTodo(uint256 tokenId,string memory title, string memory description, uint startDate, uint endDate, Status status) external {\r\n        \r\n        todos[msg.sender][tokenId].title = title;\r\n        todos[msg.sender][tokenId].description = description;\r\n        todos[msg.sender][tokenId].startDate = startDate;\r\n        todos[msg.sender][tokenId].endDate = endDate;\r\n        todos[msg.sender][tokenId].status = status;\r\n\r\n        emit TodoUpdated(msg.sender, tokenId, title, description, startDate, endDate, status);\r\n    }\r\n   \r\n\r\n}",
  "sourcePath": "C:\\Users\\matilda\\Documents\\ethereum_todo_dapp\\final-Dapp\\truffle\\contracts\\TodoList.sol",
  "compiler": {
    "name": "solc",
    "version": "0.8.18+commit.87f61d96.Emscripten.clang"
  },
  "schemaVersion": "3.4.16",
  "updatedAt": "2024-03-21T02:18:39.776Z",
  "devdoc": {
    "kind": "dev",
    "methods": {},
    "version": 1
  },
  "userdoc": {
    "kind": "user",
    "methods": {},
    "version": 1
  }
}